{
  "contractName": "Crowdfunding",
  "abi": [
    {
      "inputs": [],
      "stateMutability": "payable",
      "type": "constructor",
      "payable": true
    },
    {
      "anonymous": false,
      "inputs": [
        {
          "indexed": true,
          "internalType": "address",
          "name": "user",
          "type": "address"
        },
        {
          "indexed": false,
          "internalType": "uint256",
          "name": "price",
          "type": "uint256"
        }
      ],
      "name": "Join",
      "type": "event"
    },
    {
      "inputs": [],
      "name": "author",
      "outputs": [
        {
          "internalType": "address",
          "name": "",
          "type": "address"
        }
      ],
      "stateMutability": "view",
      "type": "function",
      "constant": true
    },
    {
      "inputs": [],
      "name": "closed",
      "outputs": [
        {
          "internalType": "bool",
          "name": "",
          "type": "bool"
        }
      ],
      "stateMutability": "view",
      "type": "function",
      "constant": true
    },
    {
      "inputs": [],
      "name": "endTime",
      "outputs": [
        {
          "internalType": "uint256",
          "name": "",
          "type": "uint256"
        }
      ],
      "stateMutability": "view",
      "type": "function",
      "constant": true
    },
    {
      "inputs": [
        {
          "internalType": "address",
          "name": "",
          "type": "address"
        }
      ],
      "name": "joined",
      "outputs": [
        {
          "internalType": "uint256",
          "name": "",
          "type": "uint256"
        }
      ],
      "stateMutability": "view",
      "type": "function",
      "constant": true
    },
    {
      "inputs": [],
      "name": "price",
      "outputs": [
        {
          "internalType": "uint256",
          "name": "",
          "type": "uint256"
        }
      ],
      "stateMutability": "view",
      "type": "function",
      "constant": true
    },
    {
      "stateMutability": "payable",
      "type": "receive",
      "payable": true
    },
    {
      "inputs": [],
      "name": "withdrawFund",
      "outputs": [],
      "stateMutability": "nonpayable",
      "type": "function"
    },
    {
      "inputs": [],
      "name": "withdraw",
      "outputs": [],
      "stateMutability": "nonpayable",
      "type": "function"
    },
    {
      "inputs": [],
      "name": "getBalance",
      "outputs": [
        {
          "internalType": "uint256",
          "name": "",
          "type": "uint256"
        }
      ],
      "stateMutability": "view",
      "type": "function",
      "constant": true
    }
  ],
  "bytecode": "0x608060405266470de4df8200006003556000600460006101000a81548160ff021916908315150217905550336000806101000a81548173ffffffffffffffffffffffffffffffffffffffff021916908373ffffffffffffffffffffffffffffffffffffffff16021790555060b442016002819055506108cf806100836000396000f3fe60806040526004361061007f5760003560e01c8063a035b1fe1161004e578063a035b1fe1461037c578063a6c3e6b9146103a7578063e07fa3c1146103e8578063f887d019146103ff576102dd565b806312065fe0146102e25780633197cbb61461030d5780633ccfd60b14610338578063597e1fb51461034f576102dd565b366102dd573373ffffffffffffffffffffffffffffffffffffffff167fb4e09949657f21548b58afe74e7b86cd2295da5ff1598ae1e5faecb1cf19ca95346040518082815260200191505060405180910390a2600254421080156100f05750600460009054906101000a900460ff16155b610162576040517f08c379a00000000000000000000000000000000000000000000000000000000081526004018080602001828103825260088152602001807f66696e697368656400000000000000000000000000000000000000000000000081525060200191505060405180910390fd5b6000600160003373ffffffffffffffffffffffffffffffffffffffff1673ffffffffffffffffffffffffffffffffffffffff1681526020019081526020016000205414610217576040517f08c379a000000000000000000000000000000000000000000000000000000000815260040180806020018281038252600f8152602001807f796f752068617665206a6f696e6564000000000000000000000000000000000081525060200191505060405180910390fd5b60035434101561028f576040517f08c379a00000000000000000000000000000000000000000000000000000000081526004018080602001828103825260078152602001807f746f6f206c6f770000000000000000000000000000000000000000000000000081525060200191505060405180910390fd5b34600160003373ffffffffffffffffffffffffffffffffffffffff1673ffffffffffffffffffffffffffffffffffffffff168152602001908152602001600020819055506102db610464565b005b600080fd5b3480156102ee57600080fd5b506102f7610496565b6040518082815260200191505060405180910390f35b34801561031957600080fd5b5061032261049e565b6040518082815260200191505060405180910390f35b34801561034457600080fd5b5061034d6104a4565b005b34801561035b57600080fd5b506103646106a2565b60405180821515815260200191505060405180910390f35b34801561038857600080fd5b506103916106b5565b6040518082815260200191505060405180910390f35b3480156103b357600080fd5b506103bc6106bb565b604051808273ffffffffffffffffffffffffffffffffffffffff16815260200191505060405180910390f35b3480156103f457600080fd5b506103fd6106df565b005b34801561040b57600080fd5b5061044e6004803603602081101561042257600080fd5b81019080803573ffffffffffffffffffffffffffffffffffffffff169060200190929190505050610881565b6040518082815260200191505060405180910390f35b600066071afd498d0000670de0b6b3a7640000478161047f57fe5b040290508066470de4df8200000160038190555050565b600047905090565b60025481565b600254421161051b576040517f08c379a000000000000000000000000000000000000000000000000000000000815260040180806020018281038252600e8152602001807f74696d65206973206e6f7420757000000000000000000000000000000000000081525060200191505060405180910390fd5b600460009054906101000a900460ff161561059e576040517f08c379a00000000000000000000000000000000000000000000000000000000081526004018080602001828103825260128152602001807f6d6f6e65792069732077697468647261776e000000000000000000000000000081525060200191505060405180910390fd5b4766470de4df8200001161061a576040517f08c379a00000000000000000000000000000000000000000000000000000000081526004018080602001828103825260148152602001807f796f752063616e206e6f7420776974686472617700000000000000000000000081525060200191505060405180910390fd5b3373ffffffffffffffffffffffffffffffffffffffff166108fc600160003373ffffffffffffffffffffffffffffffffffffffff1673ffffffffffffffffffffffffffffffffffffffff168152602001908152602001600020549081150290604051600060405180830381858888f1935050505015801561069f573d6000803e3d6000fd5b50565b600460009054906101000a900460ff1681565b60035481565b60008054906101000a900473ffffffffffffffffffffffffffffffffffffffff1681565b60008054906101000a900473ffffffffffffffffffffffffffffffffffffffff1673ffffffffffffffffffffffffffffffffffffffff163373ffffffffffffffffffffffffffffffffffffffff16146107a0576040517f08c379a00000000000000000000000000000000000000000000000000000000081526004018080602001828103825260128152602001807f796f7520617265206e6f7420617574686f72000000000000000000000000000081525060200191505060405180910390fd5b66470de4df82000047101561081d576040517f08c379a00000000000000000000000000000000000000000000000000000000081526004018080602001828103825260158152602001807f62616c616e6365206973206e6f7420656e6f756768000000000000000000000081525060200191505060405180910390fd5b6001600460006101000a81548160ff0219169083151502179055503373ffffffffffffffffffffffffffffffffffffffff166108fc479081150290604051600060405180830381858888f1935050505015801561087e573d6000803e3d6000fd5b50565b6001602052806000526040600020600091509050548156fea2646970667358221220b58d553a539654d9dbfeda0636ee6f71b83ae932f5aa2fad47854a29f806c45564736f6c63430007000033",
  "immutableReferences": {},
  "source": "// SPDX-License-Identifier: GPL-3.0\r\n// 这里测试时改了两个地方，一个是target，一个是endTime\r\npragma solidity >=0.6.0 <0.9.0;\r\ncontract Crowdfunding {\r\n    address public author;\r\n    mapping(address => uint) public joined;\r\n    uint constant Target = 0.02 ether;\r\n    uint public endTime;\r\n    uint public price = 0.02 ether;\r\n    bool public closed = false;\r\n    event Join(address indexed user, uint price);\r\n\r\n    constructor() payable {\r\n        author = msg.sender;\r\n\r\n        endTime = block.timestamp + 3 minutes;\r\n    }\r\n\r\n    function updatePrice() internal {\r\n        uint rise = address(this).balance / 1 ether * 0.002 ether;\r\n        price = 0.02 ether + rise;\r\n    }\r\n\r\n\r\n    receive() external payable {\r\n        emit Join(msg.sender, msg.value);     //  48820  gas\r\n\r\n        require(block.timestamp < endTime && !closed ,\"finished\");\r\n        require(joined[msg.sender] == 0, \"you have joined\");\r\n        require(msg.value >= price, \"too low\");\r\n        joined[msg.sender] = msg.value;\r\n\r\n        updatePrice();\r\n    }\r\n\r\n    function withdrawFund() external {\r\n        require(msg.sender == author, \"you are not author\");\r\n        require(address(this).balance >= Target, \"balance is not enough\");\r\n        closed = true;\r\n\r\n        payable(msg.sender).transfer(address(this).balance);\r\n    }\r\n\r\n    function withdraw() external {\r\n        require(block.timestamp > endTime, \"time is not up\");\r\n        require(!closed, \"money is withdrawn\");\r\n        require(Target > address(this).balance, \"you can not withdraw\");\r\n        payable(msg.sender).transfer(joined[msg.sender]);\r\n    }\r\n    function getBalance() public view returns (uint) {\r\n        return address(this).balance;\r\n    }\r\n}",
  "sourcePath": "C:\\Users\\DELL\\Desktop\\CrowdfundingDemo\\contracts\\Crowdfunding.sol",
  "compiler": {
    "name": "solc",
    "version": "0.7.0+commit.9e61f92b.Emscripten.clang"
  },
  "schemaVersion": "3.4.16",
  "updatedAt": "2025-04-08T14:23:07.789Z",
  "networkType": "ethereum",
  "devdoc": {
    "kind": "dev",
    "methods": {},
    "version": 1
  },
  "userdoc": {
    "kind": "user",
    "methods": {},
    "version": 1
  }
}